S00D0000416D70656C2E7372656328
S11300000C942A000C9434000C9434000C943400A6
S11300100C9434000C9434000C9434000C9434008C
S11300200C9434000C9434000C9434000C9434007C
S11300300C9434000C9434000C9434000C9434006C
S11300400C9434000C9434000C9434000C9434005C
S11300500C94340011241FBECFE5D4E0DEBFCDBF25
S11300600E9442000C94B3000C9400008FEF8ABBF2
S113007087BB84BB11BA82BB80E28BBB80E888BBA0
S113008015BA08950E9436009FEF52E020E430E84C
S113009040E280B39BBB80FDFCCF55BB6FEB76EC9D
S11300A08DE2615070408040E1F700C000002BBB3E
S11300B06FE37DE083E0615070408040E1F700C071
S11300C000003BBB6FE976E881E0615070408040FE
S11300D0E1F700C0000015BA28BB6FE372E48FE0BB
S11300E0615070408040E1F700C0000018BA6FE72B
S11300F07AE186E0615070408040E1F700C0000082
S113010028BB6FE77AE186E0615070408040E1F7F8
S113011000C0000018BA6FE37DE083E061507040D6
S11301208040E1F700C0000038BB6FE372E48FE069
S1130130615070408040E1F700C000002BBB6FE3CA
S11301407DE083E0615070408040E1F700C0000032
S11301504BBB6FE77DE88BE5615070408040E1F771
S10D016000C0000096CFF894FFCF12
S9030000FC
